:1000000000800020BD010000990E00005D0E000080
:100010005D0E00005D0E00005D0E00005D0E000034
:100020005D0E00005D0E00005D0E0000990E0000E8
:10003000990E00005D0E0000990E00004D0E0000AC
:10004000990E0000990E0000990E0000990E000014
:10005000990E0000990E0000990E0000990E000004
:10006000990E0000990E0000990E0000990E0000F4
:10007000990E0000990E0000990E0000990E0000E4
:10008000990E0000990E0000990E0000990E0000D4
:10009000990E0000990E0000990E0000990E0000C4
:1000A00081080000990E0000990E0000990E0000D2
:1000B000990E0000990E0000990E0000990E0000A4
:1000C000990E0000990E0000990E0000990E000094
:1000D000990E0000990E0000990E0000990E000084
:1000E000990E0000990E0000990E0000990E000074
:1000F000990E00000D2D0000990E0000253400001F
:10010000990E0000A1390000990E0000990E000020
:10011000990E0000990E0000990E0000990E000043
:10012000990E0000990E0000990E0000990E000033
:10013000990E0000990E0000990E0000990E000023
:10014000990E0000990E0000990E0000990E000013
:10015000990E0000990E0000990E0000990E000003
:10016000990E000089160000990E0000990E0000FB
:10017000990E0000990E0000990E0000990E0000E3
:10018000990E0000990E0000990E0000990E0000D3
:10019000990E0000990E0000990E0000990E0000C3
:1001A000990E0000990E0000990E0000990E0000B3
:1001B000990E0000990E0000990E0000574B4CF26A
:1001C000205210B51A804DF628121A8000BF00BFC9
:1001D00000F066FE524B4FF010621A60514A9A606E
:1001E000514ADA60A3F53043203B1A6812F480725A
:1001F00004D14E490A604FF4A8521A604C4B1A7849
:10020000110703D51A7842F008021A70494B4A4C7C
:100210004A482A221A704A4A00239918A14203D256
:10022000195899500433F8E7464B474900228B424E
:1002300002D243F8042BFAE74448454900235A58B0
:100240001A500433B3F5DE7FF9D1424B424A802184
:1002500003F8011B9342FBD1404B3C4A1A60404BD0
:100260000A221A70A3F5805324225A70A0221A7011
:100270009A799207FCD59A79D406FCD4394A9379B5
:1002800003F00C03082B374BF9D103221A714022DB
:100290005A719A799006FCD5324A9179314B4906C8
:1002A000FBD5314A314911600221516020221A7078
:1002B0009A7902F00C020C2AFAD12D4B2D4A1A60C1
:1002C0002D4B2E4A1A6000225A60072243F8042C54
:1002D0002B4AC3F80C2D62B601F096F8134B1B683D
:1002E000DA0705D5274800F0D3FF274B274A1A60C5
:1002F000274B1B785B0609D5234C244A236893427D
:1003000004D1204800F0C4FF0023236004F0C6FCA1
:1003100000F0CCFD02F0F2F8FEE700BF0E20054031
:1003200030800440823F04000100002B14D00340C1
:1003300002D0074000E007406490FF1FB06000005B
:100340006087FF1F6490FF1FBC94FF1F0082FF1F88
:100350000000000000E400E05FE400E008ED00E0E1
:100360000050064000400640448004400000030165
:1003700004800440C010050014E000E0FF76010096
:100380000000202039A2D5571CE00340A5C3945A91
:1003900000F00740FFFFFFFFFFFFFFFFFFFFFFFF32
:1003A000FFFFFFFFFFFFFFFFFFFFFFFFFFFFFFFF5D
:1003B000FFFFFFFFFFFFFFFFFFFFFFFFFFFFFFFF4D
:1003C000FFFFFFFFFFFFFFFFFFFFFFFFFFFFFFFF3D
:1003D000FFFFFFFFFFFFFFFFFFFFFFFFFFFFFFFF2D
:1003E000FFFFFFFFFFFFFFFFFFFFFFFFFFFFFFFF1D
:1003F000FFFFFFFFFFFFFFFFFFFFFFFFFFFFFFFF0D
:10040000FFFFFFFFFFFFFFFFFFFFFFFFDEF9FFFF23
:1004100010B5054C237833B9044B13B10448AFF33E
:1004200000800123237010BD6490FF1F00000000B6
:10043000B060000008B5064B1BB106480649AFF393
:1004400000800648036813B1054B03B1984708BD07
:1004500000000000B06000006890FF1F6490FF1F64
:100460000000000008B50020012100F045FF002039
:10047000012100F01DFF0320012100F03DFF0320BA
:10048000002100F015FF0348182100F0FBFB024B90
:10049000187008BDA890FF1F9090FF1F30B583B063
:1004A000144B1B7803B3144C2046002100F01AFCB7
:1004B000204600F001FC114D03F074FE02460B468D
:1004C00006210091284601F08FFE284601F040FEEB
:1004D000FA2000F083FF2046012100F003FC4FF4D6
:1004E000FA7000F07BFF03E04FF4FA7000F076FF43
:1004F00003B030BDA490FF1FA890FF1F9C92FF1F68
:10050000F0B585B0294C2A4D2A4E2B4F47E0237871
:10051000002B2CD101F012FD002826DD684629466B
:10052000782201F023FF3046694601F0D9FFC8B1B7
:1005300001221E4B1A701E4C23685B6820461F491F
:1005400007229847204601F003FE23685B68204697
:100550001B4909229847204601F0FAFD684601F040
:100560001FFF20E0684601F01BFF2378BBB101F0BC
:10057000E5FC002813DD68462946782201F0F6FEE6
:100580003846694601F0ACFF30B10022074B1A70C3
:10059000684601F005FF06E0684601F001FF01F042
:1005A000CDFC0028B3D105B0F0BD00BFA490FF1F63
:1005B0009C92FF1F8090FF1F9490FF1F745D0000AE
:1005C0007C5D000070B50D4800F01CFB0C4E304601
:1005D0000C4901F031FF0C4D0C4C304629462246A7
:1005E00004F04CFB0A4E30460A4901F025FF304624
:1005F0002946224604F042FB70BD00BFA890FF1FB1
:100600008090FF1F885D0000A12300006087FF1F0E
:100610009490FF1F945D0000044BD878C0B2044B47
:100620001B6898421CBF024B186070470060064070
:100630006887FF1F08B5FFF7EFFF10F0020FFAD031
:100640000222014BDA7008BD006006400B4B1B789C
:1006500013B90B4B1B7873B10A4B1B78202B03D9B2
:100660000123037100207047581C064A1070064A87
:10067000D154012070470020704700BF1691FF1F22
:10068000D890FF1F1791FF1FB490FF1F704700BF46
:10069000024B1878024B1B78C01A70471591FF1F48
:1006A0001491FF1F074B1B78074A12789A4205D90D
:1006B000591C044A1170054AD05C70474FF0FF3056
:1006C000704700BF1491FF1F1591FF1FDC90FF1FA3
:1006D000054B1B78054A12789A4286BF044AD05CC3
:1006E0004FF0FF30704700BF1491FF1F1591FF1F9F
:1006F000DC90FF1F08B5104BDB7813F0200F0CD1F6
:10070000122000F0ADFD0D4B1B689BB100210C4A7F
:1007100011700C4A1078984708BD0B4A13780133C2
:10072000DBB21370012B02D8084B1B7813B91220CF
:1007300000F096FD08BD00BF00600640B090FF1FAE
:100740001491FF1F1591FF1F0091FF1FD890FF1FED
:1007500038B514460D4B1B7813B90D4B1B7893B16C
:100760000C4B1D78C5F12103A34202D20122027174
:100770001C4609482844224600F0CEFA2544054B81
:100780001D70204638BD002038BD00BF1691FF1FE8
:10079000D890FF1F1791FF1FB490FF1F0022027116
:1007A0004FF47A7181600273014A0260704700BFA2
:1007B000A85D00000B4B1B6813F0400F10D00A4BD4
:1007C000994203D82722094B5A7006E0084B9942F8
:1007D00094BF1A220D22054B5A700422034B9A71C2
:1007E000704700BF348004407F1A06000060064056
:1007F0003F420F0008B50023174A1370174A1168CB
:1008000041F040011160164A9370164B1B78122B71
:1008100004D14FF41972144B1A6005E0112B03D167
:100820004FF41972114B1A60114B1B78132B04D122
:100830004FF419720F4B1A6005E0102B03D14FF4DF
:1008400019720D4B1A600D49FFF7B4FF044B2022BB
:100850005A7180229A7008BDD890FF1F34800440DE
:10086000006006406487FF1F0CA0044004A0044001
:100870006C87FF1F08A0044000A00440A086010070
:1008800008B53D4BDB78DBB213F0100F06D010211A
:10089000394AD17013F0400F03D108BD13F0400F57
:1008A0002CD013F0040F1BD00023344A1370344AA9
:1008B0001370344B1B681BB19847314B1B782BB915
:1008C00001222F4B1A7000222F4B1A702A4BD02274
:1008D0009A702D4A12781A7101222C4B1A7009E075
:1008E0000122264B1A700022294B1A70224BC0227B
:1008F0009A701B790222204BDA7008BD1E4A92784A
:1009000012F0100F1CD013F0010F14D11F4B1B78E5
:100910001B4A12789A4207D9591C1C4A11701A4A6C
:10092000D25C154B1A7102E00022134B1A71D022CF
:10093000114B9A701BE0104BC0229A701B7916E085
:100940000022144B1A7012201349032200F040FCBD
:10095000094B1B79DAB20E4B1B781F2B07D80749BE
:10096000097821B1581C0A4908700C49CA5402225E
:10097000014BDA7008BD00BF00600640AC90FF1F5D
:100980001791FF1FFC90FF1FB490FF1F1891FF1FCE
:100990001591FF1F0091FF1FF5060000DC90FF1F5F
:1009A0004900044B19700123034A1370034A137062
:1009B000704700BFB490FF1F1691FF1F1791FF1FD4
:1009C0002DE9F04182B08846374B1222DA709B78CD
:1009D00013F0200F03D0B422334B9A701DE0334B39
:1009E0001B680093009D314C0CE023680193019B30
:1009F0005B1B0F2B06D92C4B00229A7080229A7019
:100A000004204EE0FFF708FE10F0200FEDD1002289
:100A1000274B1A70B022244B9A70FFF7FDFD10F09F
:100A2000200FFAD0234B1B787BB30024224E1E4D9F
:100A3000204F335D2B71FFF7EFFD10F0020F02D155
:100A400010F0200FF7D10223EB70FFF7E5FD10F057
:100A5000100F04D08022144B9A70042018E010F07C
:100A6000200F04D18022104B9A70042010E010F067
:100A7000010F04D0002C0CBF022003200BE0013436
:100A8000E4B23B78A342D4D801E0002000E000208B
:100A9000B8F1000F02D08022034B9A700022074B5E
:100AA0001A7002B0BDE8F08100600640A491FF1FFB
:100AB000D890FF1F1791FF1FB490FF1F1691FF1FC3
:100AC0002DE9F8430D461446984600233E4A13701C
:100AD0003E4A13703E4B1222DA709B7813F0200FBF
:100AE00003D0B4223A4B9A700AE0FFF795FD10F05C
:100AF000200FFAD10022374B1A70B022344B9A7073
:100B00006D0045F00105EDB2314B1D71FFF792FD0F
:100B1000FFF782FD10F0110005D080222C4B9A7057
:100B20000020BDE8F88344B9B8F1000F0CBFA02243
:100B30008022274B9A70BDE8F883012C04D1244B06
:100B4000A8229A701B7938E0214BA0229A701B7959
:100B5000012C32D900251E4E4FF0A8091E4FFFF779
:100B600069FD013CE4B2012C08BF86F802901F2DFC
:100B700004D86A1C33797B55D5B200E03379012C57
:100B8000EDD1FFF757FDB022114B9A701F2D07D8FA
:100B90002B465D1CEDB20E4A11790F4AD15401E08B
:100BA0000B4B1B79B8F1000F02D08022084B9A70D2
:100BB000064B1D702846BDE8F883FFF73BFDB022C9
:100BC000034B9A700023E4E71491FF1F1591FF1F58
:100BD00000600640D890FF1FDC90FF1F08B501237E
:100BE000FFF76EFF08BD00BF08B50121FFF7E8FE63
:100BF00008BD00BF08B50248FFF7D0FD08BD00BF23
:100C00000491FF1F704700BF70B50E4615460B4C90
:100C100001782046FFF7C4FE20463146FFF716FD57
:100C200023681B682046290A984723681B682046CA
:100C3000E9B298472046FFF7D7FF70BD0491FF1F28
:100C400070B505460E460E4C20462978FFF7A8FEE3
:100C500020463146FFF7FAFC2046FFF7C5FF204645
:100C600029780222FFF7BAFF2046FFF71BFD85B265
:100C70002046FFF717FD2D02ADB2284380B270BDAC
:100C80000491FF1F10B5044601700A48FFF7B2FD3A
:100C900020460621FFF7D4FF542809D1204607211A
:100CA000FFF7CEFFB0F5806F14BF0020012010BD0C
:100CB000002010BD0491FF1F10B50521FFF7C0FFF4
:100CC0000446C0F30B0003F035FE4FF0765103F0FD
:100CD00085FE04F48054A4B21CB14FF0874103F0A8
:100CE00073FD10BD38B505460C460121FFF7A8FF7E
:100CF000012C07D140F480722846012192B2FFF7FF
:100D000083FF07E034B980F480722846012192B253
:100D1000FFF77AFF002038BD844641EA000313F054
:100D200003036DD1403A41D351F8043B40F8043BF2
:100D300051F8043B40F8043B51F8043B40F8043BB5
:100D400051F8043B40F8043B51F8043B40F8043BA5
:100D500051F8043B40F8043B51F8043B40F8043B95
:100D600051F8043B40F8043B51F8043B40F8043B85
:100D700051F8043B40F8043B51F8043B40F8043B75
:100D800051F8043B40F8043B51F8043B40F8043B65
:100D900051F8043B40F8043B51F8043B40F8043B55
:100DA00051F8043B40F8043B403ABDD2303211D3F5
:100DB00051F8043B40F8043B51F8043B40F8043B35
:100DC00051F8043B40F8043B51F8043B40F8043B25
:100DD000103AEDD20C3205D351F8043B40F8043BF5
:100DE000043AF9D2043208D0D2071CBF11F8013BF3
:100DF00000F8013B01D30B8803806046704700BFB9
:100E0000082A13D38B078DD010F003038AD0C3F1C7
:100E10000403D21ADB071CBF11F8013B00F8013BA9
:100E200080D331F8023B20F8023B7BE7043AD9D368
:100E3000013A11F8013B00F8013BF9D20B7803703D
:100E40004B7843708B78837060467047024B1A680A
:100E500001321A60704700BFA491FF1F08B50D4C06
:100E6000236813F4802F01D000F00EFC236813F4E4
:100E7000806F01D001F04AFF236813F4006F01D0A6
:100E800002F0D0FA236813F4805FE9D002F088FD05
:100E9000E6E700BF3480044008B5FFF7DFFF00BF7E
:100EA0001022014B1A80704700200540704700BF98
:100EB000024A136818441060184670477087FF1F75
:100EC000EFF31383ABB9EFF31083ABB9EFF3058303
:100ED00023B10F2B05D9094A985C03E04FF48070C9
:100EE00000E00020EFF311833BB1834238BF184686
:100EF00070474FF0FF30704700207047F0E300E08C
:100F000010B5154B1C681C6014F4805F05D0134BA2
:100F1000DB6813B1114BDB68984714F4005F05D010
:100F20000E4B1B6913B10D4B1B69984714F0200F32
:100F300005D00A4B1B6E13B1084B1B6E984714F07B
:100F4000100F07D0054BD3F884301BB1034BD3F8F7
:100F50008430984710BD00BFA09004401C91FF1F33
:100F600010B5274B1C681C6014F4803F05D0254B3E
:100F70001B6813B1234B1B68984714F4003F05D03E
:100F8000204B5B6813B11F4B5B68984714F0010F4F
:100F900005D01C4B1B6C13B11A4B1B6C984714F0FB
:100FA000020F05D0174B5B6C13B1164B5B6C984767
:100FB00014F0080F05D0134B9B6C13B1114B9B6CB5
:100FC000984714F0040F05D00E4BDB6C13B10D4B9A
:100FD000DB6C984714F4002F05D00A4B5B6E13B1FD
:100FE000084B5B6E984714F4802F07D0054BD3F85D
:100FF00080301BB1034BD3F88030984710BD00BF41
:10100000A0A004401C91FF1F10B5384B1C681C6049
:1010100014F0080F05D0364B5B6A13B1344B5B6A92
:10102000984714F0100F05D0314B9B6A13B1304B29
:101030009B6A984714F0400F05D02D4BDB6A13B123
:101040002B4BDB6A984714F0800F05D0284B1B6BA5
:1010500013B1274B1B6B984714F0200F05D0244B7E
:101060005B6B13B1224B5B6B984714F0010F05D0FB
:101070001F4BDB6B13B11E4BDB6B984714F0020F59
:1010800005D01B4B9B6D13B1194B9B6D984714F00A
:10109000040F05D0164BDB6D13B1154BDB6D984774
:1010A00014F4007F05D0124BDB6E13B1104BDB6ED6
:1010B000984714F4807F05D00D4B1B6F13B10C4B78
:1010C0001B6F984714F4806F05D0094B5B6F13B109
:1010D000074B5B6F984714F4006F05D0044B9B6F70
:1010E00013B1034B9B6F984710BD00BFA0B00440E5
:1010F0001C91FF1F10B5264B1C681C6014F0010FDB
:1011000005D0244B9B6813B1224B9B68984714F081
:10111000800F05D01F4B5B6913B11E4B5B6998476D
:1011200014F0100F05D01B4B9B6913B1194B9B6931
:10113000984714F0040F05D0164BDB6913B1154B1B
:10114000DB69984714F0080F05D0124B1B6A13B1E6
:10115000104B1B6A984714F0020F05D00D4B9B6B88
:1011600013B10C4B9B6B984714F0200F05D0094B23
:101170001B6D13B1074B1B6D984714F0400F05D042
:10118000044B5B6D13B1034B5B6D984710BD00BF03
:10119000A0C004401C91FF1F10B50B4B1C681C60C5
:1011A00014F0020F05D0094B9B6E13B1074B9B6ED9
:1011B000984714F0010F05D0044BDB6F13B1034BBC
:1011C000DB6F984710BD00BFA0D004401C91FF1FEB
:1011D00030B4212831D8042A2FD8DFE802F00709DB
:1011E000050B03000B2406E00A2404E0082402E0B7
:1011F0000C2400E00924124B03EBC0035A68114B86
:10120000114DC3F89C51114DC3F8A051104DC3F8B6
:10121000A451104DC3F8A8510F4DC3F8AC5172B68C
:10122000136823F4702313600C4D45F8201043F02D
:10123000807343EA0444146062B630BC704700BF58
:10124000C05D00000082FF1F010F0000610F000061
:1012500009100000F5100000991100001C91FF1FFB
:10126000094B03EBC0035A6872B6136823F0877307
:1012700023F4803343F0807313600022034B43F860
:10128000202062B6704700BFC05D00001C91FF1FA8
:10129000044B00221A6004490A60044A10601022BC
:1012A0001A60704714D0034004D0034000D00340BC
:1012B00021281ED80F4B53F8303093F8802212F0BB
:1012C000FF0F08D019B1012283F880207047012256
:1012D00083F800217047074B03EBC000436821B13E
:1012E0001A6842F003021A6070471A6822F002027C
:1012F0001A607047C05D000021284AD8254B03EBD7
:10130000C0035B68012911D004291DD0214A52F87D
:101310003020002082F8800200292FD0022931D00D
:1013200003291FD040F203121A607047194A52F87D
:101330003020012182F880124FF4A2721A601A68DC
:1013400022F020021A607047124A52F83020012120
:1013500082F880124FF4A2721A601A6842F02002DA
:101360001A6070474FF480721A601A6842F00202E5
:101370001A601A6822F001021A6070474FF48072F6
:101380001A6070474FF480721A601A6842F00302C4
:101390001A607047C05D000072B60C4B1B680C4AA7
:1013A00012680C49096862B611F0806F02D0322BC6
:1013B00088BF0132C3F5BB33FF330749A1FB0303E9
:1013C0009B094FF47A7000FB0230704718E000E090
:1013D000A491FF1F04ED00E0ABAAAAAA38B5054608
:1013E000FFF7DAFF044625B938BD013D0AD004F500
:1013F0007A74FFF7D1FF001BB0F57A7FF5D201F0C8
:10140000B3F8F6E738BD00BF10B5264B4FF4000225
:101410001A604FF080721A604FF000721A604FF03D
:1014200080621A604FF000621A6000201E4B186044
:101430004BF6FF710433196028231C4A13600832ED
:1014400013600832136008321360083213600832E8
:10145000136008321360083213600922144C2260B2
:1014600004F5805404342060043421600434236083
:1014700008342360143C226004F5FE240434206008
:101480000C4801600C490B6008310B600B4B1A6073
:1014900001F08CF84FF4C870FFF7A0FF00F074FC67
:1014A00010BD00BF08E100E0048003400C80034051
:1014B0000080034008800B400C800B4000800B40F4
:1014C00030B40E4B1B7843F002020D4C04EBC20407
:1014D00060600C48007800280CBF8824C82444EAC7
:1014E0000141074D45F8321080F00100054A1070A7
:1014F00083F00103014A137030BC70471092FF1F44
:101500000080FF1F8992FF1F10B4431E032B11D8C8
:1015100072B60A4A52F8230050B14268074941F8AE
:101520002320074A32F813400188611A22F8131069
:1015300062B600E000205DF8044B70470092FF1F88
:10154000A494FF1F013803280DD872B6074B53F837
:1015500020302BB1002001305B68002BFBD100E074
:10156000002062B670470020704700BF5492FF1FF2
:1015700038B572B601231B491B4C5A1812F8012CBE
:1015800012F0080F24D09A0054F832506DB9164B5F
:1015900003EBC20108304860144943F83210144B81
:1015A0001A78013A1A7062B638BD42F0010254F856
:1015B00032506DB90C4B03EBC201083048600D4945
:1015C00043F832100A4B1A78013A1A7062B638BDE5
:1015D0000133052BD1D162B60022054B1A7000F001
:1015E00037FC38BD005F00000080FF1F880040000E
:1015F0007E92FF1FC800400010B4431E032B37D853
:10160000400140F010001C4A104472B61B4AD25CE4
:10161000032A09D8DFE802F019021B05083002226C
:1016200016E00830042213E0154A52F823201AB9B4
:10163000134A42F8231003E0124A52F82320516063
:10164000104A42F8231062B612E0032200E005229D
:101650000A4CE25401F10803436000F00803002B38
:101660000CBF8823C8230A8843EA0243036062B69A
:101670005DF8044B704700BF0080FF1FBC91FF1F47
:101680005492FF1F6492FF1F2DE9F84FA34CDFF81F
:10169000E092DFF8E0A2DFF8E0B22578EDB215F0D5
:1016A000040F1DD09E4B1B7813F0FF0F16D09D4BDF
:1016B0001B7803F0FF022BB1531EDBB2994A137063
:1016C00003B900BE984B1B7803F0FF0233B1531EE1
:1016D000DBB2954A13700BB900F016FD042323709A
:1016E00015F0080F00F0E48299F80030DBB21D0914
:1016F00040F021828D4D9E0805EBC6035A6855F8CF
:101700003630C3F38303013B0C2B00F21082DFE879
:1017100013F0CB01CB010E020E020E020E020E02DE
:101720000E02E8010E020E020E020D00804913683F
:101730000B6052684A607F4A45F8362000227E4995
:101740000A607A490A618A6101217C4A11709BB260
:1017500040F28162934218D8B3F5D06F2ED2B3F520
:10176000817F00F01E8106D8802B00F0C980822B7B
:1017700000F0CC8066E140F20232934200F0268114
:10178000B3F5A06F00F062815CE142F22102934266
:1017900000F0868107D8B3F5086F00F0AB80B3F591
:1017A000106F11D04EE142F22122934200F04181AC
:1017B00042F22132934200F0498143E1604B5D687F
:1017C000002D40F0188130E1594B9A78544B1A7033
:1017D000564D05F180062B6A13F0800F03D0686A1E
:1017E000083800F035FB0835B542F4D1DFF88C81BC
:1017F00000263746534AB05828B1456800F028FB08
:101800000DB12846F9E700234E4973504E4AB350B4
:101810004E4BF05828B1456800F01AFB0DB1284630
:10182000F9E7002349497350494AB35028F8023F69
:10183000484BFB5C023B032B0AD8DFE803F00206AF
:1018400002060022434BDA5502E00122414BDA55F1
:1018500001370436102ECDD100223F4B1A700125DE
:101860003E4EDFF81C81314F05EB080313F8013CB5
:1018700006F8043B13F0080F2DD000F0C9FA48B168
:10188000A90007EB451200F108035360344A47F8FA
:10189000312007E0AB00002247F833202E4B1A78A6
:1018A00001321A7000F0B4FA58B1AB0043F00103F2
:1018B00007EBC30100F108024A601E4A47F83320D3
:1018C00009E0AB0043F00103002247F83320224B2C
:1018D0001A7801321A70AA0042F00201002347F878
:1018E000313042F0030247F8323001351D4B9E4241
:1018F000BAD11EE20A4B1B781B4D2B700127AAE0C0
:10190000194D00232B706B700227A4E0084B9B88B5
:10191000042B37D90F22154B1A70C1E080200740E5
:101920008892FF1F1192FF1F8A92FF1F0080FF1FE6
:101930007492FF1FC8004000A891FF1F8992FF1FEB
:10194000045F00000092FF1FAC91FF1F5492FF1F25
:101950006492FF1FBC91FF1F7E92FF1FC4200740AF
:1019600088004000D42007408092FF1FC02007401D
:10197000902007409420074098200740A294FF1F22
:10198000005F0000A04A0021117051709F4A12F8B8
:10199000233013F0020F5CD09B4D01232B700227E4
:1019A00059E09B4B9B8803F07F03042B02DC984A91
:1019B00052881AB10F22954B1A7071E0934A12F8AF
:1019C000231021F0020102F82310B2E1904B9B8812
:1019D00003F07F03042B02DC8D4A52881AB10F22D8
:1019E0008A4B1A705CE0894A12F8231041F0020118
:1019F00002F823109DE1864B5E889F88854BA3F1FA
:101A00000C02114633F80C0CB04209D133F80A0C21
:101A1000B84205D1360A032E0CBF2F7817891AE079
:101A20000D690C330C32002DEBD10F22774B1A705D
:101A300036E0794B1A68794B1A60754B9A78784B77
:101A40001A7076E10F22714B1A7029E000273D468B
:101A500001E002276C4D6E4BDB889F4228BF1F467A
:101A6000402F34BF3E46402628463146FFF728FD2A
:101A70003544BF1B03D13F2E00F2608110E0402FA0
:101A800034BF3E46402628463146FFF719FD35440F
:101A9000BF1B01D13F2E03D9624B1D60624B1F80DB
:101AA00001238AF8003042E0594B198842F22103A1
:101AB000994212D15D4BD81D12F8011B03F8011F8A
:101AC0008342F9D15A4B1B68862B02D10F22594B06
:101AD0001A7000200146FFF7F3FC574B45F83630EB
:101AE00025E0504B1E68BEB14F4FB7F80080B8F1EB
:101AF000400F34BF4546402530462946FFF7E0FCFD
:101B0000C5EB08039BB23B800BB9402D01D1354496
:101B100000E00025434B1D603D4B1B88B3F5A06FD3
:101B200005D13B4B00225A709B788BF80030012383
:101B30008AF80030B9E0414E9F0806EBC708D8F894
:101B40000420A2F10800013DEDB213F0080F47D0C8
:101B500000F07EF93A4B53F825304BB35A683849B8
:101B600041F8252003F10802C8F80420354A525DE7
:101B7000032A12D8DFE802F002060A0E0321314AD6
:101B800051550AE002212F4A515506E005212D4A00
:101B9000515502E004212B4A515518F0080F0CBF93
:101BA0008822C8221B8842EA034346F837307CE08B
:101BB000244B5B5D032B0BD8DFE803F0777702063D
:101BC0000022204B5A5570E001221E4B5A556CE002
:101BD00018F0080F0CBF022203221A4B5A5564E07A
:101BE00056F837301B0C22F8083C002B55D0002348
:101BF00022F8063C42F8043C134B53F825302BBB2B
:101C0000114B43F8250025E08092FF1FC0200740BC
:101C10007492FF1F105F0000A491FF1FB494FF1F78
:101C20009892FF1FA891FF1F7C92FF1FAB94FF1F8C
:101C3000AC94FF1F1192FF1FC80040000080FF1FDF
:101C40005492FF1FBC91FF1F0092FF1F3F4B53F8A0
:101C5000253058603D4B43F825003D4B33F81510B7
:101C600032F8082C0A4423F8152000F0D1F860B1AE
:101C700000F10803C8F8043018F0080F354B364A55
:101C800008BF134646F837300FE0002346F83730D8
:101C9000324B1A7801321A7007E018F0080F2D4BFA
:101CA0002D4A08BF134646F8373008232370F4E462
:101CB00015F0010F22D02A4902230B700022294B74
:101CC0001A70294B24481860284C5C60986028489A
:101CD000D8601A619A610D20264B1870FF232648A0
:101CE00003700838037018300270244A13709F2262
:101CF000234B1A7001230B70BDE8F88F15F0800F8D
:101D000005D00D221B4B1A708022403B1A7015F033
:101D1000020F06D0184B1A78D2B21A700222083B72
:101D20001A7015F0100F0ED01022164B1A70BDE865
:101D3000F88F00200146FFF7C3FBB1E628460021DB
:101D4000FFF7BEFBACE6BDE8F88F00BFAC91FF1F0C
:101D5000A494FF1FC8004000880040007E92FF1F2F
:101D6000942007401092FF1F0080FF1FC091FF1FAB
:101D70001492FF1FC0200740882007408C20074096
:101D8000842007408020074008B501F07DFE002335
:101D90001B491A465A50C81842600833882BF9D19B
:101DA000184B1A6842F480221A60154BC3F30721BE
:101DB000154A1170C3F30741143211701B0E04321F
:101DC0001370FF23343A137008321370783A13708B
:101DD00001238432137000216C3211707C3A13702D
:101DE00070220A4B1A704FF40072A3F241331A604A
:101DF000102203F1C04303F5C8231A7008BD00BFC9
:101E00000080FF1F348004409C20074049E400E02C
:101E100072B60D4B1A68B2FA82F30B2B02D962B676
:101E2000002070474FF00041D94022EA01020649E4
:101E30000A6062B6054903EBC303DB00C818002241
:101E4000CA504260704700BF7487FF1F0084FF1FA5
:101E500008B50F4BC31A0F4AA2FB03131B090B2B28
:101E600014D80D4A12783AB10C4A127812F0FF0FCA
:101E700002D0FFF77DFB08BD72B6094A4FF0004162
:101E800021FA03F311681943116062B608BD00BF5F
:101E90000084FF1F398EE3387E92FF1F8892FF1F58
:101EA0007487FF1F10B5134B1B6853B9124B1B7877
:101EB00013F0FF0F18D00320FFF726FB0D4B18601F
:101EC000A8B10C4B186843885A1C03441C7A038839
:101ED0009A4206D3FFF7BCFF0022064B1A60204649
:101EE00010BD4280204610BD4FF0FF3010BD4FF0B6
:101EF000FF3010BD9492FF1F8892FF1F08B50D4B55
:101F00001B6883B90C4B1B7813F0FF0F08D003201C
:101F1000FFF7FAFA074B186028B94FF0FF3008BDF9
:101F20004FF0FF3008BD034B1B685A881344187AE2
:101F300008BD00BF9492FF1F8892FF1F044B988832
:101F4000044B1B681BB11A885B88D31A184470476E
:101F5000A494FF1F9492FF1F10B50B4B1B7813F036
:101F6000FF0F0FD0094B186820B1FFF771FF002257
:101F7000064B1A6003242046FFF7C6FA10B1FFF79C
:101F800067FFF8E710BD00BF8892FF1F9492FF1F04
:101F90002DE9F04704460122374B1A700E460029FE
:101FA00064D0DFF8E080DFF8E0909A46334FD8F84D
:101FB000003083BB99F8003013F0FF0F06D10022E8
:101FC0002D4B1A704FF0FF30BDE8F0874AF2F9252B
:101FD0000420FFF7B7FA07280AD801238AF800304F
:101FE000FFF716FFC8F80000A8B900238AF80030F0
:101FF000013D01D03B7833B10122204B1A704FF0E4
:10200000FF30BDE8F08700F0AFFA99F8003013F028
:10201000FF0FDDD1D3E700233B70D8F800104A88CA
:10202000C2F14005AE4238BF354602F108030B4409
:102030002A444A80761B3DB1254414F8012B03F84D
:10204000012BAC42F9D100E025464B883F2B07D944
:1020500040230B800420FFF7CFFA0023C8F800309C
:102060000522074B1A700EB12C46A0E70020024B48
:102070001870BDE8F08700BF8B92FF1F9092FF1F82
:102080008A92FF1F8C92FF1F8892FF1F00B583B0BA
:1020900002AB03F8010D18460121FFF779FF03B0E9
:1020A0005DF804FB10B5144B1B7813F0FF0F21D023
:1020B0000122124B1A70124B196851B10024114BB6
:1020C0001C704B880B800420FFF796FA0C4B1C60A9
:1020D0000DE0FFF79DFE014630B10022094B1A705A
:1020E0000420FFF789FA02E00122064B1A70002251
:1020F000024B1A7010BD00BF8892FF1F8B92FF1F0A
:102100008C92FF1F8A92FF1F08B50E4B1B7813F0AD
:10211000FF0F16D10C4B196841B14B880B8004207E
:10212000FFF76AFA0022084B1A6008BDFFF770FE3D
:10213000014618B10420FFF75FFA08BD0122034BE6
:102140001A7008BD8B92FF1F8C92FF1F8A92FF1F8F
:1021500000B583B0054B1B88ADF8043003685B689D
:1021600001A90222984703B05DF804FBD05E00008D
:10217000F0B58BB0164622B903681B68C9B2984700
:102180002FE0012A08BF0A2621B930228DF8252028
:10219000212417E021243746B1FBF6F506FB15157F
:1021A000EDB22246092D94BF30353735EDB20DF131
:1021B000280E724402F8245CB1FBF7F111B1013C26
:1021C000E4B2E9E733B1013CE4B20AAB23442D2287
:1021D00003F8242C03685B6801A92144C4F122029E
:1021E00098470BB0F0BD00BF2DE9F04F87B0814696
:1021F00016461F469DF840801046194600220023CF
:1022000002F096FA28B107F100431F464FF0010A89
:1022100001E04FF0000AB8F1000F6ED04FF0000B54
:102220000022414B3EA5D5E90045104619462246FD
:102230002B4602F00BF802460B460BF1010B5FFA3E
:102240008BF18845F1D82AE03E4620462946524681
:102250005B4601F0FBFF04460D4602F091FAC0B266
:10226000771CFFB206AB1E4400F1300306F8103CA9
:1022700001F086FF02460B462046294601F032FE59
:1022800004460D464745DFD101E04FF00108D9F87B
:1022900000305B68484602A9424698473CE0304619
:1022A000394601F021FE04460D4602F069FA064661
:1022B00001F056FF02460B462046294601F012FE69
:1022C00004460D46484631460A225346FFF750FF62
:1022D00001902E238DF80830B8F10F0F34BF43461C
:1022E0000F23002BD1D003F101085FFA88F80126F3
:1022F0004FF0000ADFF834B0A7E730463946002235
:10230000094B01F0F1FD02F03BFA014648460A2272
:102310005346FFF72DFF0190019807B0BDE8F08FFD
:10232000000000A09999B93F0000E03F0000244060
:1023300070B582B004460C4B1B680093009E0A4D9A
:102340002368DB682046984700280ADA00F00CF979
:102350002B680193019A921BA3689A42F0D34FF025
:10236000FF3002B070BD00BFA491FF1F70B50446DE
:102370000D461646002100F05FF8A3689E420DD975
:102380002846FFF7D5FF011E02DA01232B7305E073
:1023900021B12046C9B200F077F8F1E7204670BDC0
:1023A00010B50446006802F0A9FC204610BD00BF2D
:1023B00038B504460D460068013102F0A7FF18B198
:1023C00020606560012038BD002038BD10B504468E
:1023D00043688B420AD2FFF7EBFF034648B1A3687C
:1023E00033B9236800221A70012302E0012300E0C0
:1023F0000123184610BD00BF70B504460E461546B1
:102400002AB9036803B11A700023A36012E01146D1
:10241000FFF7DCFF48B9206818B102F06FFC002319
:10242000236000236360A36004E0A5602068314658
:1024300003F07AFA204670BD38B5044600230360E5
:102440004360836003730D4639B1084603F0CAFA4E
:10245000024620462946FFF7CFFF204638BD00BF81
:1024600070B504460D4683685AB1D6183146FFF759
:10247000ADFF30B12068A3681844294603F054FA30
:10248000A660204670BD00BF10B582B004468DF82E
:10249000041000238DF8053001A90122FFF7E0FFA9
:1024A000204602B010BD00BF08B5036813B109682B
:1024B00059B906E00A6862B18B6863B1107840428E
:1024C00008BD82684AB1187808BD184603F01EF9A5
:1024D00008BD002008BD002008BD002008BD00BFC9
:1024E00008B582688B689A4206D1FFF7DDFFD0F10C
:1024F000010038BF002008BD002008BD08B5FDF769
:10250000B1FFFDF7CBFF00F02FF8FAE708B5FFF7B2
:1025100015FD08BD08B5FFF7C5FC08BD08B5FFF7F8
:10252000EDFC08BD08B5FFF7BDFD08BD08B5FFF718
:1025300013FD08BD08B50846FFF7A8FD08BD00BF9C
:1025400008B508461146FFF723FD08BD044B0022DD
:102550001A714FF47A7199601A73024A1A607047BF
:102560009C92FF1FE05E000008B50F4B1B78CBB9B3
:1025700001220D4B1A70FFF7E1FC08B1FDF7C0FF17
:1025800000F03AFB08B101F055FB00F0C1FE08B1C4
:1025900001F0F2FB01F08EF908B101F08FFC00228E
:1025A000014B1A7008BD00BFAC92FF1F60223A4B6E
:1025B0001A70E12201331A70384B1B78082B10D1A6
:1025C000012203F1804303F56C331A60132334496D
:1025D0000B6001F5FF2101F2FC710A60314A1360C2
:1025E0001FE00A2B0DD139222F4B1A6013232C49DF
:1025F0000B6001F5FF2101F2FC710A60294A1360AA
:102600000FE00C2B0CBF35223D22274B1A60122302
:1026100023490B6001F5FF2101F2FC710A60214A98
:102620001360224B1B7833B10123214A136002F55A
:102630000022136005E000231D4A136002F500220A
:1026400013601C4B1B78012B06D880231A4A136099
:1026500002F5002213601AE0042B06D88423164AE0
:10266000136002F50022136011E0082B06D88523C1
:10267000114A136002F50022136008E0102B94BF8A
:10268000862387230C4A136002F50022136001227F
:102690000A4B1A70704700BF004007407887FF1F41
:1026A0000CB003400CB00B4008B00340AE92FF1FCB
:1026B00020B003407987FF1F24B00340AD92FF1F75
:1026C00030B40023B0FBF2F402FB14041D46092CC5
:1026D00094BF30343734E4B2CC54B0FBF2F008B1DC
:1026E0000133EFE70D4400226A70934207DD885CF6
:1026F000CC5C8C54C8540132013B9A42F7DB08464B
:1027000030BC7047254B1A6842F480621A6000237F
:10271000234A1370234A1370234A1370234A1370F9
:10272000234A1370234B1B7813B1152B05D008E0F7
:1027300040F21332204B1A6003E040F213321F4B79
:102740001A601F4B1B78012B02D0052B05D008E027
:102750004FF451721B4B1A6003E04FF451721A4B45
:102760001A60C0F34432194B1A70C0F347125A7002
:1027700000F01F00987204229A700221D9745A75D1
:1027800088221A743C22DA704022114B1A704FF4DE
:102790000052A3F229331A60704700BF348004400E
:1027A0003C93FF1FB592FF1F4493FF1F3D93FF1FF4
:1027B000B492FF1FF892FF1F40A0044018C00440CD
:1027C0007A87FF1F44A004401CC0044000A00640BC
:1027D0002DE400E0164B9B7803F0EC0300F00302BD
:1027E000134310F0040F18BF43F01003104A937006
:1027F00000F00F03042B04D11346927942F04002FB
:102800009A710B4B5A7902F0EF0210F0100F18BFBB
:1028100042F01002064B5A719B7903F0EF0310F05F
:10282000200F18BF43F01003014A9371704700BF97
:1028300000A0064010B5144B1B6813F4806F21D024
:10284000124B1B7813F0FF0F06D0104CFFF78CFED5
:10285000237813F0FF0FF9D14FF400520C4B1A609C
:1028600000230C4AD37040F203120B490A60043172
:102870000A600A4A13700A4A13700A4B1B680BB1AC
:1028800001221A7010BD00BF34800440B492FF1FB3
:1028900084E100E000A0064040A004403C93FF1FFC
:1028A000B592FF1FB092FF1F10B50446094A137876
:1028B00013F0FF0FFBD120460121FEF71DFD20463E
:1028C0000021FEF7F5FC044B53F83420034B1A604B
:1028D00010BD00BFB492FF1FC05D00004093FF1FFA
:1028E00010B40C4609B140F08000184B1B78984298
:1028F00028D0174A126812F4806F21D003F07F03AA
:10290000012B02D0052B04D006E00022114B1A60E7
:1029100002E00022104B1A60002C0CBF44226022FF
:1029200000F07F03012B02D0052B05D008E042F414
:102930004072084B1A6003E042F44072064B1A6082
:10294000024B18705DF8044B704700BF7A87FF1F79
:102950003480044044A004401CC00440114B1B7848
:1029600098421ED0104A126812F4806F17D013B12B
:10297000152B04D006E000220C4B1A6002E0002266
:102980000B4B1A6010B1152805D008E040F2133245
:10299000064B1A6003E040F21332054B1A60014BFC
:1029A00018707047F892FF1F3480044040A0044024
:1029B00018C0044010B50D4B1B6813F4806F12D083
:1029C00021280CD80A4C0B4B53F8303023600121DE
:1029D000FEF792FC236800221A70012010BD00202F
:1029E000034B186010BD002010BD00BF34800440B0
:1029F000B092FF1FC05D0000114B1B6813F4806F85
:102A00001BD0122804D140F202320E4B1A600DE0A6
:102A1000142804D140F202320B4B1A6006E00B4B33
:102A20005A7B02F0FE025A7300207047074B5A7B14
:102A300042F001025A73012070470020704700BF26
:102A4000348004400CA0044014C0044000A00640A0
:102A50002DE9F04107461F4B1B6813F4806F37D0F8
:102A60001D4B1B680BB101221A701C4B1C780134E2
:102A7000402C28BF00241A4D1A4EDFF86C8017E056
:102A8000FEF71EFA40280FDC337913F0800F0FD0C9
:102A90002B780133402B28BF002318F80320D2B233
:102AA000F271DBB22B7003E0FF2801DDFFF75CFD64
:102AB0002B78DBB29C42E3D0FFB20B4B1F550122B7
:102AC0000A4B1A70E4B2054B1C70BC22054BDA703D
:102AD000BDE8F081348004404093FF1F4493FF1F02
:102AE0003D93FF1F00A00640B892FF1FB492FF1F46
:102AF0002DE9F84F0746284B1B6813F4806F49D027
:102B0000264B1B680BB101221A7007EB010B5F45C6
:102B10003DD2DFF89890224EDFF88C80DFF890A04D
:102B200099F800400134402C28BF00243578EDB2DC
:102B3000A54220D1BC2388F80330FEF7C1F9402814
:102B400011DC98F8043013F0800F10D03378013383
:102B5000402B28BF00231AF80320D2B288F80720A0
:102B6000DBB2337003E0FF2801DDFFF7FDFC3378B3
:102B7000DBB29D42E1D017F8013B0AF80430012294
:102B8000084B1A70E4B289F800405F45C8D1BC22F6
:102B9000054BDA70BDE8F88F348004404093FF1F86
:102BA0003D93FF1FB492FF1F00A006404493FF1FF8
:102BB000B892FF1F10B5064B1B7813F0FF0F06D01D
:102BC000034CFFF7D1FC237813F0FF0FF9D110BDB0
:102BD000B492FF1F064B1B78DBB2064A1278D2B2C2
:102BE00093422CBF3F3202F1FF32D01A704700BF30
:102BF0004493FF1F3D93FF1F054B1878C0B2054B50
:102C00001B78DBB2984238BF4030C01A704700BF13
:102C10003C93FF1FB592FF1F10B4184B1A78D2B225
:102C2000174B1B78DBB29A4218D001333F2B18D8D0
:102C30001449C85CC0B2DCB211490C701249096871
:102C4000C9B19A4203D300E00023D31A01E0403215
:102C5000D31A1A2B0FDC00230B700CE04FF0FF305F
:102C600009E0084B1878C0B20021054B1970064BDB
:102C700019680029E8D15DF8044B70473C93FF1FA9
:102C8000B592FF1FFC92FF1FB092FF1F094B1A78ED
:102C9000D2B2094B1B78DBB29A4207D00133402BEA
:102CA00028BF0023054AD05CC0B270474FF0FF3008
:102CB000704700BF3C93FF1FB592FF1FFC92FF1FA0
:102CC0000D4B1B6813F4806F14D00C4BDA7802F0B4
:102CD000CB02DA7040225A74DA7842F03402DA70A9
:102CE000074B1A78D2B2074B1A70074B1B680BB10F
:102CF00000221A70704700BF3480044000A00640D4
:102D0000B592FF1F3C93FF1FB092FF1F70B43D4B65
:102D10001B7913F0300F33D072B63A4B9B7D03F022
:102D2000FF022BB9374BDA7940225A7462B627E09A
:102D300062B6354B1978C9B2344B1C78E4B2314DC8
:102D4000334EEB79D8B24B1C402B28BF0023A34253
:102D50001CBFF0541946531E13F0FF02F1D1CAB242
:102D6000294B1A702B4B1B6853B1A1422EBFC4EBE9
:102D70000101C4F1400409192729C4BF01221A70B6
:102D8000204BDA78D2B212F0800F27D01B7913F0E3
:102D9000800F23D0204B1C78E4B2204B1B78DBB291
:102DA0009C4210D017491E4D01E0A3420BD00133C5
:102DB000402B28BF00230879E85CC0B2C871087DA9
:102DC000C0B20728F1D9DBB214490B700D4B1B7947
:102DD00013F0800F02D07C210A4BD97012F0400F03
:102DE0000ED0084B1B7913F0400F09D000220D4B79
:102DF0001A700D4B1B6803B11A703C22014BDA703C
:102E000070BC704700A006403C93FF1FB592FF1FA7
:102E1000FC92FF1FB092FF1F4493FF1F3D93FF1FC3
:102E2000B892FF1FB492FF1F4093FF1F254B1A68F3
:102E300042F400621A600023234A1370234A13707D
:102E4000234A1370234A1370234A1370234B1B78B1
:102E5000092B02D01A2B05D008E040F21332204B88
:102E60001A6003E040F213321E4B1A601E4B1B78AF
:102E70000A2B02D01F2B05D008E04FF451721B4BD8
:102E80001A6003E04FF45172194B1A60C0F34432D8
:102E9000184B1A70C0F347125A7000F01F00987256
:102EA00004229A700221D9745A7588221A743C221D
:102EB000DA704022104B1A704FF40042A3F22B3309
:102EC0001A60704734800440B893FF1F4D93FF1F72
:102ED000C093FF1FB993FF1F4C93FF1F7B87FF1FFA
:102EE0000CB0044004D004407C87FF1F10B00440A5
:102EF00000D0044000B006402FE400E0164B9B7861
:102F000003F0EC0300F00302134310F0040F18BFAA
:102F100043F01003104A937000F00F03042B04D108
:102F20001346927942F040029A710B4B5A7902F0A3
:102F3000EF0210F0100F18BF42F01002064B5A714A
:102F40009B7903F0EF0310F0200F18BF43F010033C
:102F5000014A9371704700BF00B0064010B5144B92
:102F60001B6813F4006F21D0124B1B7813F0FF0F76
:102F700006D0104CFFF7F8FA237813F0FF0FF9D1C1
:102F80004FF400420C4B1A6000230C4AD37040F2FD
:102F900003120B490A6004310A600A4A13700A4A94
:102FA00013700A4B1B680BB101221A7010BD00BFD1
:102FB000348004404C93FF1F84E100E000B00640E1
:102FC0000CB00440B893FF1F4D93FF1F4893FF1FA1
:102FD00010B50446094A137813F0FF0FFBD12046C1
:102FE0000121FEF789F920460021FEF761F9044B23
:102FF00053F83420034B1A6010BD00BF4C93FF1FE1
:10300000C05D0000BC93FF1F10B40C4609B140F036
:103010008000184B1B78984228D0174A126812F487
:10302000805F21D003F07F030A2B02D01F2B04D036
:1030300006E00022114B1A6002E00022104B1A60D9
:10304000002C0CBF4422602200F07F030A2B02D028
:103050001F2B05D008E042F44072084B1A6003E0D1
:1030600042F44072064B1A60024B18705DF8044B34
:10307000704700BF7C87FF1F3480044010B00440BD
:1030800000D00440124B1B78984220D0114A12689D
:1030900012F4805F19D0092B02D01A2B04D006E05D
:1030A00000220D4B1A6002E000220C4B1A60092826
:1030B00002D01A2805D008E040F21332064B1A60FD
:1030C00003E040F21332054B1A60014B1870704751
:1030D0007B87FF1F348004400CB0044004D00440C0
:1030E00010B50D4B1B6813F4006F12D021280CD8BB
:1030F0000A4C0B4B53F8303023600121FEF7FCF8EB
:10310000236800221A70012010BD0020034B1860B4
:1031100010BD002010BD00BF348004404893FF1F45
:10312000C05D00000D4B1B6813F4006F13D017280F
:103130000AD140F202320A4B1A600A4B5A7B42F023
:1031400001025A7301207047064B5A7B02F0FE02BF
:103150005A73002070470020704700BF348004403D
:1031600008B0044000B006402DE9F04107461F4B6F
:103170001B6813F4006F37D01D4B1B680BB1012285
:103180001A701C4B1C780134282C28BF00241A4DBF
:103190001A4EDFF86C8017E0FDF792FE40280FDC36
:1031A000337913F0800F0FD02B780133282B28BFF1
:1031B000002318F80320D2B2F271DBB22B7003E0C7
:1031C000FF2801DDFFF7D0F92B78DBB29C42E3D07A
:1031D000FFB20B4B1F5501220A4B1A70E4B2054B8C
:1031E0001C70BC22054BDA70BDE8F08134800440CD
:1031F000BC93FF1FC093FF1FB993FF1F00B0064091
:103200005093FF1F4C93FF1F2DE9F84F0746284BA3
:103210001B6813F4006F49D0264B1B680BB10122C9
:103220001A7007EB010B5F453DD2DFF89890224EF4
:10323000DFF88C80DFF890A099F800400134282C4A
:1032400028BF00243578EDB2A54220D1BC2388F8F0
:103250000330FDF735FE402811DC98F8043013F0F8
:10326000800F10D033780133282B28BF00231AF8A1
:103270000320D2B288F80720DBB2337003E0FF28C6
:1032800001DDFFF771F93378DBB29D42E1D017F829
:10329000013B0AF804300122084B1A70E4B289F8A5
:1032A00000405F45C8D1BC22054BDA70BDE8F88FFD
:1032B00034800440BC93FF1FB993FF1F4C93FF1F42
:1032C00000B00640C093FF1F5093FF1F10B5064B80
:1032D0001B7813F0FF0F06D0034CFFF745F9237856
:1032E00013F0FF0FF9D110BD4C93FF1F064B1B7855
:1032F000DBB2064A1278D2B293422CBF273202F1D7
:10330000FF32D01A704700BFC093FF1FB993FF1F51
:10331000054B1878C0B2054B1B78DBB2984238BF1A
:103320004030C01A704700BFB893FF1F4D93FF1F76
:1033300010B4184B1A78D2B2174B1B78DBB29A42F2
:1033400018D001333F2B18D81449C85CC0B2DCB286
:1033500011490C7012490968C9B19A4203D300E0BF
:103360000023D31A01E04032D31A1A2B0FDC0023BA
:103370000B700CE04FF0FF3009E0084B1878C0B23A
:103380000021054B1970064B19680029E8D15DF83A
:10339000044B7047B893FF1F4D93FF1F7893FF1F97
:1033A0004893FF1F094B1A78D2B2094B1B78DBB246
:1033B0009A4207D00133402B28BF0023054AD05C36
:1033C000C0B270474FF0FF30704700BFB893FF1F87
:1033D0004D93FF1F7893FF1F0D4B1B6813F4006F75
:1033E00014D00C4BDA7802F0CB02DA7040225A7417
:1033F000DA7842F03402DA70074B1A78D2B2074B0F
:103400001A70074B1B680BB100221A70704700BF7F
:103410003480044000B006404D93FF1FB893FF1F57
:103420004893FF1F70B43D4B1B7913F0300F33D01E
:1034300072B63A4B9B7D03F0FF022BB9374BDA791A
:1034400040225A7462B627E062B6354B1978C9B289
:10345000344B1C78E4B2314D334EEB79D8B24B1C6F
:10346000402B28BF0023A3421CBFF0541946531E13
:1034700013F0FF02F1D1CAB2294B1A702B4B1B6813
:1034800053B1A1422EBFC4EB0101C4F1400409199C
:103490002729C4BF01221A70204BDA78D2B212F069
:1034A000800F27D01B7913F0800F23D0204B1C787E
:1034B000E4B2204B1B78DBB29C4210D017491E4D62
:1034C00001E0A3420BD00133282B28BF0023087949
:1034D000E85CC0B2C871087DC0B20728F1D9DBB280
:1034E00014490B700D4B1B7913F0800F02D07C2117
:1034F0000A4BD97012F0400F0ED0084B1B7913F015
:10350000400F09D000220D4B1A700D4B1B6803B100
:103510001A703C22014BDA7070BC704700B0064054
:10352000B893FF1F4D93FF1F7893FF1F4893FF1F12
:10353000C093FF1FB993FF1F5093FF1F4C93FF1FB2
:10354000BC93FF1F174B1A6842F480521A60002385
:10355000154A1370154A1370154A1370154A1370E3
:10356000154A137040F21331144A11604FF451712F
:1035700004321160C0F34431114A1170C0F3471195
:10358000517000F01F009072937013742C23D3704D
:1035900040220C4B1A704FF40032A3F22D331A6004
:1035A000704700BF348004403494FF1FC993FF1F4D
:1035B0003C94FF1F3594FF1FC893FF1F08C00440B1
:1035C00000C0064031E400E0164B9B7803F0EC03AA
:1035D00000F00302134310F0040F18BF43F0100370
:1035E000104A937000F00F03042B04D11346927914
:1035F00042F040029A710B4B5A7902F0EF0210F040
:10360000100F18BF42F01002064B5A719B7903F05D
:10361000EF0310F0200F18BF43F01003014A93711D
:10362000704700BF00C0064010B5144B1B6813F470
:10363000805F21D0124B1B7813F0FF0F06D0104C87
:10364000FEF792FF237813F0FF0FF9D14FF4003209
:103650000C4B1A6000230C4AD37040F203120B4942
:103660000A6004310A600A4A13700A4A13700A4B4E
:103670001B680BB101221A7010BD00BF34800440DA
:10368000C893FF1F84E100E000C0064008C004406A
:103690003494FF1FC993FF1FC493FF1F10B5044646
:1036A000094A137813F0FF0FFBD120460121FDF7E3
:1036B00023FE20460021FDF7FBFD044B53F8342088
:1036C000034B1A6010BD00BFC893FF1FC05D000010
:1036D0003894FF1F10B40C4609B140F08000104B25
:1036E0001B78984219D00F4A126812F4805F12D0EA
:1036F00003F07F03082B02D100220B4B1A60002C31
:103700000CBF4422602200F07F03082B03D142F457
:103710004072054B1A60024B18705DF8044B7047FD
:103720007D87FF1F348004400CC00440704700BFF9
:1037300010B50D4B1B6813F4805F12D021280CD8F4
:103740000A4C0B4B53F8303023600121FDF7D4FDB8
:10375000236800221A70012010BD0020034B18605E
:1037600010BD002010BD00BF34800440C493FF1F73
:10377000C05D00000D4B1B6813F4805F13D00E2852
:103780000AD140F202320A4B1A600A4B5A7B42F0CD
:1037900001025A7301207047064B5A7B02F0FE0269
:1037A0005A73002070470020704700BF34800440E7
:1037B00004C0044000C006402DE9F04107461F4BFD
:1037C0001B6813F4805F37D01D4B1B680BB10122BF
:1037D0001A701C4B1C780134282C28BF00241A4D69
:1037E0001A4EDFF86C8017E0FDF76AFB40280FDC0B
:1037F000337913F0800F0FD02B780133282B28BF9B
:10380000002318F80320D2B2F271DBB22B7003E070
:10381000FF2801DDFEF7A8FE2B78DBB29C42E3D047
:10382000FFB20B4B1F5501220A4B1A70E4B2054B35
:103830001C70AC22054BDA70BDE8F0813480044086
:103840003894FF1F3C94FF1F3594FF1F00C00640B3
:10385000CC93FF1FC893FF1F38B505460C4629B10E
:1038600015F8010BFFF7A8FF013CF9D138BD00BFE7
:1038700010B5064B1B7813F0FF0F06D0034CFEF774
:1038800073FE237813F0FF0FF9D110BDC893FF1F0B
:10389000064B1B78DBB2064A1278D2B293422CBF99
:1038A000273202F1FF32D01A704700BF3C94FF1F4D
:1038B0003594FF1F054B1878C0B2054B1B78DBB25F
:1038C000984238BF4030C01A704700BF3494FF1F81
:1038D000C993FF1F10B4184B1A78D2B2174B1B783C
:1038E000DBB29A4218D001333F2B18D81449C85C78
:1038F000C0B2DCB211490C7012490968C9B19A42D0
:1039000003D300E00023D31A01E04032D31A1A2B6C
:103910000FDC00230B700CE04FF0FF3009E0084B88
:103920001878C0B20021054B1970064B19680029A0
:10393000E8D15DF8044B70473494FF1FC993FF1F13
:10394000F493FF1FC493FF1F094B1A78D2B2094B9F
:103950001B78DBB29A4207D00133402B28BF0023EB
:10396000054AD05CC0B270474FF0FF30704700BFCF
:103970003494FF1FC993FF1FF493FF1F054B1A7860
:10398000D2B2054B1A70054B1B680BB100221A709E
:10399000704700BFC993FF1F3494FF1FC493FF1FDC
:1039A0002F4B1B7913F0200F23D02D4BDB79D9B28D
:1039B0002C4B1B780133402B28BF00232A4A127856
:1039C000D2B29A4204D0294AD154D9B2254A1170B0
:1039D000274A116869B1274A1278D2B293422EBFA2
:1039E000C2EB0303C2F140029B18272BC4BF012383
:1039F0000B701B4BDB78DBB213F0800F1CD0184A26
:103A0000127912F0800F17D01B4A1178C9B2194AE7
:103A10001278D2B2914203D16C21114AD1700BE0DD
:103A20000132282A28BF00221449885CC0B20C4900
:103A3000C871D2B20F490A7013F0400F0ED0084B74
:103A40001B7913F0400F09D000220D4B1A700D4B5B
:103A50001B6803B11A702C22014BDA70704700BF4B
:103A600000C006403494FF1FC993FF1FF493FF1F4B
:103A7000C493FF1F3594FF1F3C94FF1FCC93FF1F7F
:103A8000C893FF1F3894FF1F00B585B072B61B4B5B
:103A900070221A7041211A4A11700F21013A1170D7
:103AA00080221A701A46137813F0800FFBD0154B42
:103AB000186862B6144B98429CBF00EB800040002F
:103AC00001A90A22FEF7FCFD9DF804307BB908E04D
:103AD00001A9595C31B19180023201330A2BF7D12F
:103AE00000E0002301335B00084A137003E0074A3B
:103AF00053800123ECE705B05DF804FB00000240B1
:103B000007000240080002407F9698000C88FF1FC3
:103B100008B503681B68C9B2984708BD08B50368B3
:103B20001B68C9B2984708BD08B503681B68C9B2CD
:103B3000984708BD08B503681B68C9B2984708BD17
:103B400008B54B0803F1376000F5D830B0FBF1F051
:103B5000FEF7D8FD08BD00BF10B514464B0803F1B1
:103B6000376000F5D830B0FBF1F0FEF7CBFD204612
:103B7000FEF730FE10BD00BF08B5FEF75BFE08BDC6
:103B800008B50846FEF790FE08BD00BF08B5084618
:103B9000FEF7E4FE08BD00BF08B508461146FEF773
:103BA0009FFE08BD08B50846FEF704FF003018BFA9
:103BB000012008BD08B50846FEF71EFF003018BFFB
:103BC000012008BD08B5FFF717F808BD08B5FFF7D5
:103BD0005DF808BD08B5FFF71FF808BD08B5FEF78A
:103BE000E9FF08BD08B5FFF76BF808BD08B5FEF79B
:103BF000F1FF08BD08B50846FEF72AFF012008BD01
:103C000008B50846FEF724FF012008BD10B514468C
:103C100008461146FEF76CFF204610BD38B50D462C
:103C2000084601F0DFFE044628462146FEF760FF05
:103C3000204638BD704700BF044B00221A714FF474
:103C40007A7199601A73024A1A6070474094FF1F94
:103C5000605F000008B503681B68C9B2984708BDDB
:103C600008B503681B68C9B2984708BD08B5036862
:103C70001B68C9B2984708BD08B503681B68C9B27C
:103C8000984708BD08B54B0803F1376000F5D830F8
:103C9000B0FBF1F0FFF7CAF808BD00BF10B514463D
:103CA0004B0803F1376000F5D830B0FBF1F0FFF7B7
:103CB000BDF82046FFF722F910BD00BF08B5FFF799
:103CC0004DF908BD08B50846FFF782F908BD00BFE9
:103CD00008B50846FFF7D6F908BD00BF08B5084685
:103CE0001146FFF791F908BD08B50846FFF7F8F946
:103CF000003018BF012008BD08B50846FFF712FACA
:103D0000003018BF012008BD08B5FFF701FB08BD52
:103D100008B5FFF747FB08BD08B5FFF709FB08BD6D
:103D200008B5FFF7D3FA08BD08B5FFF755FB08BD86
:103D300008B5FFF7DBFA08BD08B50846FFF714FA27
:103D4000012008BD08B50846FFF70EFA012008BD9E
:103D500010B5144608461146FFF756FA204610BD26
:103D600038B50D46084601F03DFE0446284621467A
:103D7000FFF74AFA204638BD704700BF044B0022C7
:103D80001A714FF47A7199601A73024A1A60704777
:103D90005094FF1FC05F000008B503681B68C9B2DC
:103DA000984708BD08B503681B68C9B2984708BDA5
:103DB00008B503681B68C9B2984708BD08B5036811
:103DC0001B68C9B2984708BD08B54B0803F1B76036
:103DD00000F55840B0FBF1F0FFF7B4FB08BD00BFA1
:103DE00010B514464B0803F1B76000F55840B0FB1E
:103DF000F1F0FFF7A7FB2046FFF7E6FB10BD00BF81
:103E000008B5FFF711FC08BD08B50846FFF746FCEA
:103E100008BD00BF08B50846FFF788FC08BD00BF15
:103E200008B508461146FFF755FC08BD08B5084619
:103E3000FFF77EFC003018BF012008BD08B508461A
:103E4000FFF798FC003018BF012008BD08B5FFF748
:103E500031FD08BD08B5FFF777FD08BD08B5FFF7D0
:103E600039FD08BD08B5FFF703FD08BD08B5FFF72C
:103E700085FD08BD08B5FFF70BFD08BD08B5084670
:103E8000FFF79AFC012008BD08B50846FFF794FC2F
:103E9000012008BD10B5144608461146FFF7DCFCAA
:103EA000204610BD38B50D46084601F09BFD04467E
:103EB00028462146FFF7D0FC204638BD704700BF9A
:103EC000044B00221A714FF47A7199601A73024AF6
:103ED0001A6070476094FF1F2060000081F000416D
:103EE00002E000BF83F0004330B54FEA41044FEADF
:103EF000430594EA050F08BF90EA020F1FBF54EA7A
:103F0000000C55EA020C7FEA645C7FEA655C00F015
:103F1000E2804FEA5454D4EB5555B8BF6D420CDDE6
:103F20002C4480EA020281EA030382EA000083EA69
:103F3000010180EA020281EA0303362D88BF30BD09
:103F400011F0004F4FEA01314FF4801C4CEA11315F
:103F500002D0404261EB410113F0004F4FEA0333BE
:103F60004CEA133302D0524263EB430394EA050F49
:103F700000F0A780A4F10104D5F1200E0DDB02FAB8
:103F80000EFC22FA05F2801841F1000103FA0EF24C
:103F9000801843FA05F359410EE0A5F120050EF112
:103FA000200E012A03FA0EFC28BF4CF0020C43FA43
:103FB00005F3C01851EBE37101F0004507D54FF050
:103FC000000EDCF1000C7EEB00006EEB0101B1F5A0
:103FD000801F1BD3B1F5001F0CD349085FEA3000E6
:103FE0004FEA3C0C04F101044FEA445212F5800FF1
:103FF00080F09A80BCF1004F08BF5FEA500C50F18E
:10400000000041EB045141EA050130BD5FEA4C0C70
:10401000404141EB010111F4801FA4F10104E9D1F9
:1040200091F0000F04BF01460020B1FA81F308BFF0
:104030002033A3F10B03B3F120020CDA0C3208DDBC
:1040400002F1140CC2F10C0201FA0CF021FA02F197
:104050000CE002F11402D8BFC2F1200C01FA02F107
:1040600020FA0CFCDCBF41EA0C019040E41AA2BF2C
:1040700001EB0451294330BD6FEA04041F3C1CDAF4
:104080000C340EDC04F11404C4F1200220FA04F014
:1040900001FA02F340EA030021FA04F345EA0301BE
:1040A00030BDC4F10C04C4F1200220FA02F001FA80
:1040B00004F340EA0300294630BD21FA04F0294602
:1040C00030BD94F0000F83F4801306BF81F480119B
:1040D0000134013D4EE77FEA645C18BF7FEA655C0E
:1040E00029D094EA050F08BF90EA020F05D054EAE0
:1040F000000C04BF1946104630BD91EA030F1EBFE5
:104100000021002030BD5FEA545C05D140004941E8
:1041100028BF41F0004130BD14F580043CBF01F5DB
:10412000801130BD01F0004545F0FE4141F47001C1
:104130004FF0000030BD7FEA645C1ABF194610469C
:104140007FEA655C1CBF0B46024650EA013406BF9D
:1041500052EA033591EA030F41F4002130BD00BF5C
:1041600090F0000F04BF0021704730B54FF4806419
:1041700004F132044FF000054FF0000150E700BF9A
:1041800090F0000F04BF0021704730B54FF48064F9
:1041900004F1320410F0004548BF40424FF00001E6
:1041A0003EE700BF42004FEAE2014FEA31014FEA29
:1041B00002701FBF12F07F4393F07F4F81F0605178
:1041C000704792F0000F14BF93F07F4F704730B5E7
:1041D0004FF4607401F0004521F0004120E700BF7A
:1041E00050EA010208BF704730B54FF000050AE001
:1041F00050EA010208BF704730B511F0004502D502
:10420000404261EB41014FF4806404F132045FEA03
:10421000915C3FF4DCAE4FF003025FEADC0C18BFA8
:1042200003325FEADC0C18BF033202EBDC02C2F19E
:10423000200300FA03FC20FA02F001FA03FE40EA30
:104240000E0021FA02F11444C1E600BF70B54FF030
:10425000FF0C4CF4E06C1CEA11541DBF1CEA135512
:1042600094EA0C0F95EA0C0F00F0DEF82C4481EA7A
:10427000030621EA4C5123EA4C5350EA013518BF9A
:1042800052EA033541F4801143F4801338D0A0FB87
:1042900002CE4FF00005E1FB02E506F00042E0FB34
:1042A00003E54FF00006E1FB03569CF0000F18BF3A
:1042B0004EF0010EA4F1FF04B6F5007F64F54074E2
:1042C00004D25FEA4E0E6D4146EB060642EAC62175
:1042D00041EA55514FEAC52040EA5E504FEACE2EE2
:1042E000B4F1FD0C88BFBCF5E06F1ED8BEF1004FE5
:1042F00008BF5FEA500E50F1000041EB045170BD61
:1043000006F0004646EA010140EA020081EA0301A4
:10431000B4EB5C04C2BFD4EB0C0541EA045170BDA0
:1043200041F480114FF0000E013C00F3AB8014F11A
:10433000360FDEBF002001F0004170BDC4F1000463
:10434000203C35DA0C341BDC04F11404C4F12005E4
:1043500000FA05F320FA04F001FA05F240EA02003F
:1043600001F0004221F0004110EBD37021FA04F675
:1043700042EB06015EEA430E08BF20EAD37070BD2F
:10438000C4F10C04C4F1200500FA04F320FA05F08E
:1043900001FA04F240EA020001F0004110EBD37090
:1043A00041F100015EEA430E08BF20EAD37070BD00
:1043B000C4F1200500FA05F24EEA020E20FA04F3D9
:1043C00001FA05F243EA020321FA04F001F0004188
:1043D00021FA04F220EA020000EBD3705EEA430EF9
:1043E00008BF20EAD37070BD94F0000F0FD101F028
:1043F0000046400041EB010111F4801F08BF013C61
:10440000F7D041EA060195F0000F18BF704703F09E
:104410000046520043EB030313F4801F08BF013D25
:10442000F7D043EA0603704794EA0C0F0CEA1355E1
:1044300018BF95EA0C0F0CD050EA410618BF52EA9B
:104440004306D1D181EA030101F000414FF00000A1
:1044500070BD50EA410606BF1046194652EA4306AF
:1044600019D094EA0C0F02D150EA013613D195EA23
:104470000C0F05D152EA03361CBF104619460AD16B
:1044800081EA030101F0004141F0FE4141F4700175
:104490004FF0000070BD41F0FE4141F4780170BD65
:1044A00070B54FF0FF0C4CF4E06C1CEA11541DBFCA
:1044B0001CEA135594EA0C0F95EA0C0F00F0A7F8CC
:1044C000A4EB050481EA030E52EA03354FEA0131F9
:1044D00000F088804FEA03334FF0805545EA13130C
:1044E00043EA12634FEA022245EA111545EA1065D4
:1044F0004FEA00260EF000419D4208BF964244F16B
:10450000FD0404F5407402D25B084FEA3202B61A89
:1045100065EB03055B084FEA32024FF480104FF45D
:10452000002CB6EB020E75EB030E22BFB61A7546D1
:1045300040EA0C005B084FEA3202B6EB020E75EB64
:10454000030E22BFB61A754640EA5C005B084FEACC
:104550003202B6EB020E75EB030E22BFB61A754699
:1045600040EA9C005B084FEA3202B6EB020E75EBA4
:10457000030E22BFB61A754640EADC0055EA060E65
:1045800018D04FEA051545EA16754FEA06164FEAA8
:10459000C30343EA52734FEAC2025FEA1C1CC0D154
:1045A00011F4801F0BD141EA00014FF000004FF0E1
:1045B000004CB6E711F4801F04BF01430020B4F1A2
:1045C000FD0C88BFBCF5E06F3FF6AFAEB5EB030C5A
:1045D00004BFB6EB020C5FEA500C50F1000041EB57
:1045E000045170BD0EF0004E4EEA113114EB5C0424
:1045F000C2BFD4EB0C0541EA045170BD41F48011F7
:104600004FF0000E013C90E645EA060E8DE60CEAFE
:10461000135594EA0C0F08BF95EA0C0F3FF43BAF1B
:1046200094EA0C0F0AD150EA01347FF434AF95EAD2
:104630000C0F7FF425AF104619462CE795EA0C0FB6
:1046400006D152EA03353FF4FDAE1046194622E783
:1046500050EA410618BF52EA43067FF4C5AE50EA5D
:1046600041047FF40DAF52EA43057FF4EBAE12E74D
:104670004FF0FF3C06E000BF4FF0010C02E000BF2E
:104680004FF0010C4DF804CD4FEA410C7FEA6C5C11
:104690004FEA430C18BF7FEA6C5C1BD001B050EAB4
:1046A000410C0CBF52EA430C91EA030F02BF90EA9F
:1046B000020F0020704710F1000F91EA030F58BF5E
:1046C000994208BF90422CBFD8176FEAE37040F0C0
:1046D000010070474FEA410C7FEA6C5C02D150EA5E
:1046E000013C07D14FEA430C7FEA6C5CD6D152EA19
:1046F000033CD3D05DF8040B704700BF84461046DE
:1047000062468C461946634600E000BF01B5FFF7DC
:10471000B7FF002848BF10F1000F01BD4DF808EDAC
:10472000FFF7F4FF0CBF012000205DF808FB00BF7D
:104730004DF808EDFFF7EAFF34BF012000205DF8D7
:1047400008FB00BF4DF808EDFFF7E0FF94BF012024
:1047500000205DF808FB00BF4DF808EDFFF7CEFF25
:1047600094BF012000205DF808FB00BF4DF808ED64
:10477000FFF7C4FF34BF012000205DF808FB00BF35
:104780004A0011D212F5001211D20DD56FF47873D0
:10479000B3EB62520ED44FEAC12343F0004343EA25
:1047A000505323FA02F070474FF00000704750EA70
:1047B000013002D14FF0FF3070474FF000007047DA
:1047C00080F0004002E000BF81F0004142001FBFC6
:1047D0005FEA410392EA030F7FEA226C7FEA236CCF
:1047E0006AD04FEA1262D2EB1363C1BFD2184140C4
:1047F00048404140B8BF5B42192B88BF704710F05A
:10480000004F40F4000020F07F4018BF404211F0FC
:10481000004F41F4000121F07F4118BF494292EA64
:10482000030F3FD0A2F1010241FA03FC10EB0C0090
:10483000C3F1200301FA03F100F0004302D549421D
:1048400060EB4000B0F5000F13D3B0F1807F06D3CA
:1048500040084FEA310102F10102FE2A51D2B1F1C2
:10486000004F40EBC25008BF20F0010040EA0300B7
:104870007047490040EB000010F4000FA2F1010264
:10488000EDD1B0FA80FCACF1080CB2EB0C0200FAEE
:104890000CF0AABF00EBC25052421843BCBFD0403C
:1048A0001843704792F0000F81F4000106BF80F4B6
:1048B00000000132013BB5E74FEA41037FEA226C79
:1048C00018BF7FEA236C21D092EA030F04D092F044
:1048D000000F08BF0846704790EA010F1CBF002078
:1048E000704712F07F4F04D1400028BF40F00040D5
:1048F000704712F100723CBF00F50000704700F0F5
:10490000004343F0FE4040F4000070477FEA22621B
:1049100016BF08467FEA23630146420206BF5FEAEC
:10492000412390EA010F40F4800070474FF00003EC
:1049300004E000BF10F0004348BF40425FEA000CB3
:1049400008BF704743F0964301464FF000001CE05B
:1049500050EA010208BF70474FF000030AE000BFB1
:1049600050EA010208BF704711F0004302D54042EF
:1049700061EB41015FEA010C02BF84460146002061
:1049800043F0B64308BFA3F18053A3F50003BCFA7C
:104990008CF2083AA3EBC25310DB01FA02FC634429
:1049A00000FA02FCC2F12002BCF1004F20FA02F230
:1049B00043EB020008BF20F00100704702F1200223
:1049C00001FA02FCC2F1200250EA4C0021FA02F284
:1049D00043EB020008BF20EADC7070474FF0FF0C89
:1049E0001CEAD0521EBF1CEAD15392EA0C0F93EA84
:1049F0000C0F6FD01A4480EA010C400218BF5FEA26
:104A000041211ED04FF0006343EA501043EA511198
:104A1000A0FB01310CF00040B1F5000F3EBF490092
:104A200041EAD3715B0040EA010062F17F02FD2A96
:104A30001DD8B3F1004F40EBC25008BF20F0010079
:104A4000704790F0000F0CF0004C08BF49024CEA90
:104A5000502040EA51207F3AC2BFD2F1FF0340EA22
:104A6000C250704740F400004FF00003013A5DDC93
:104A700012F1190FDCBF00F000407047C2F10002D4
:104A8000410021FA02F1C2F1200200FA02FC5FEAC1
:104A9000310040F1000053EA4C0308BF20EADC700B
:104AA000704792F0000F00F0004C02BF400010F47D
:104AB000000F013AF9D040EA0C0093F0000F01F02A
:104AC000004C02BF490011F4000F013BF9D041EA4C
:104AD0000C018FE70CEAD15392EA0C0F18BF93EA4E
:104AE0000C0F0AD030F0004C18BF31F0004CD8D178
:104AF00080EA010000F00040704790F0000F17BFFF
:104B000090F0004F084691F0000F91F0004F14D044
:104B100092EA0C0F01D142020FD193EA0C0F03D19C
:104B20004B0218BF084608D180EA010000F000409F
:104B300040F0FE4040F40000704740F0FE4040F47A
:104B4000400070474FF0FF0C1CEAD0521EBF1CEA19
:104B5000D15392EA0C0F93EA0C0F69D0A2EB030237
:104B600080EA010C49024FEA402037D04FF08053D1
:104B700043EA111143EA10130CF000408B4238BF96
:104B80005B0042F17D024FF4000C8B4224BF5B1AA4
:104B900040EA0C00B3EB510F24BFA3EB510340EAF2
:104BA0005C00B3EB910F24BFA3EB910340EA9C00A0
:104BB000B3EBD10F24BFA3EBD10340EADC001B0110
:104BC00018BF5FEA1C1CE0D1FD2A3FF650AF8B42B4
:104BD00040EBC25008BF20F0010070470CF0004CC1
:104BE0004CEA50207F32C2BFD2F1FF0340EAC250EC
:104BF000704740F400004FF00003013A37E792F0AD
:104C0000000F00F0004C02BF400010F4000F013A0A
:104C1000F9D040EA0C0093F0000F01F0004C02BF05
:104C2000490011F4000F013BF9D041EA0C0195E76E
:104C30000CEAD15392EA0C0F08D142027FF47DAF07
:104C400093EA0C0F7FF470AF084676E793EA0C0FF7
:104C500004D14B023FF44CAF08466EE730F0004CF5
:104C600018BF31F0004CCAD130F000427FF45CAF85
:104C700031F000437FF43CAF5FE700BF03460846D6
:104C8000194600F001B800BF10B40C4613460146A7
:104C9000224602205DF8044B00F0D4BE70B50F4EE2
:104CA0000F4D761BB61007D0043D0024013455F893
:104CB000043F9847A642F9D10A4E0B4D761B01F0EE
:104CC000DFF9B61008D0043D0024013455F8043F44
:104CD0009847A642F9D170BD70BD00BF8C6000003E
:104CE0008C600000AC6000008C600000024B01464C
:104CF000186800F00BB800BF508CFF1F024B014634
:104D0000186800F069BF00BF508CFF1F2DE9F04FFD
:104D100001F10B05162D83B0064627D935F007059E
:104D200027D4A94225D8304600F0ECFAB5F5FC7F2F
:104D300026D2C14F4FEAD50C07EBCC03DC689C426E
:104D400000F0D2816368E268A16823F00303234482
:104D500030465D68CA6045F0010591605D6000F015
:104D6000D3FA0834204603B0BDE8F08F1025A942DD
:104D7000D9D900240C232046336003B0BDE8F08F5E
:104D80005FEA552C00F08A80BCF1040F00F26081CC
:104D90004FEA951C0CF1380C4FEA4C01A64F07EB7B
:104DA0008101CC68A14205D10CE0002B7ADAE468DD
:104DB000A14207D0626822F00302531B0F2BF4DDDF
:104DC0000CF1FF3C0CF1010C9B4B3C6903F1080E0C
:104DD000744500F07E81616821F003014A1B0F2AAF
:104DE00000F36481002AC3F814E0C3F810E06ADA23
:104DF000B1F5007F80F03A81C90803EBC1004FEAAA
:104E0000A1085A688168A1604FF0010909FA08F801
:104E100048EA0202E0605A608460CC604FEAAC036A
:104E20000120984090425BD8024206D12CF0030C3E
:104E3000400002420CF1040CFAD007EBCC084446C7
:104E4000E146E3689C4207D145E1002A80F25681A1
:104E5000DB689C4200F03F81596821F003014A1B46
:104E60000F2AF2DD1C46D3F80CC054F8088F5919EC
:104E700045F0010942F00105C3F804903046C8F836
:104E80000CC0CCF8088079613961C1F80CE0C1F838
:104E900008E04D608A5000F037FA63E77E214FF05A
:104EA0003F0C7BE72244E3685068A16840F00105AD
:104EB000CB6030469960556000F026FA08342046F1
:104EC00003B0BDE8F08F214430464B6843F0010346
:104ED0004B6000F019FA0834204603B0BDE8F08FAB
:104EE000BC68636823F00309A94504D3C5EB090333
:104EF0000F2B00F39180514B514A1968136801330D
:104F000005EB010A04EB090B00F061810AF5805AF8
:104F10000AF10F0A2AF47F6A2AF00F0A3046514636
:104F2000019200F0E1FBB0F1FF3F8046019A00F0F2
:104F30000081834500F2FA80DFF810C1DCF8003010
:104F4000C3455344CCF8003000F04A8112683C4914
:104F500001321BBFCBEB080B5B44C1F80080CCF8DF
:104F6000003018F0070300F01381C3F10802C3F505
:104F7000805390440833C244CAF30B0ACAEB030AB5
:104F800051463046CDF804C000F0AEFB431CDDF8BE
:104F900004C000F03581C8EB0002524442F0010227
:104FA000DCF80030C7F808805344BC42C8F804203D
:104FB000CCF80030DFF894A015D0B9F10F0F40F213
:104FC000EA806168A9F10C0222F0070201F0010EEB
:104FD000A118052042EA0E0E0F2AC4F804E048602A
:104FE000886000F21181174ABC6811688B4288BF43
:104FF0001360154A11688B4288BF1360626822F003
:1050000003029542C5EB020301D80F2B04DC3046A6
:1050100000F07AF90024A5E6621943F0010345F097
:10502000010565603046BA60536000F06DF90834E0
:10503000204603B0BDE8F08F548CFF1F7894FF1F0B
:105040006090FF1F7494FF1F7094FF1F7C94FF1FDC
:10505000BCF1140F61D9BCF1540F00F28F804FEAFC
:10506000153C0CF16E0C4FEA4C0197E64B0A042BF1
:1050700058D9142B00F2AE8003F15B02500007EB0D
:105080008000DFF8BC818368834200F08A805A6820
:1050900022F00302914202D29B689842F7D1D9686C
:1050A0007A68E160A3608C60DC60B7E6611942F069
:1050B000010745F001056560304659611961C1F885
:1050C0000CE0C1F808E04F608A50083400F01CF989
:1050D00048E65A68A2E609F1010919F0030F04F144
:1050E00008047FF4AEAE2DE004F108036469A34226
:1050F00008BF0CF1020C3FF467AE23E619441C46CE
:105100004868DB6854F8082F40F001054D603046D0
:10511000D3609A6000F0F8F824E60CF15B0C4FEADB
:105120004C013BE68A0938325000A8E7BC423FF404
:1051300003AFBC68626822F0030262E7D8F800801F
:1051400098457BD11CF0030FA8F108030CF1FF3C3C
:10515000F4D17B6823EA00037B60400098423FF66D
:10516000BFAE00283FF4BCAE0342CC467FF465AE30
:10517000400003420CF1040CFAD05EE6BCF5AA7FB5
:105180001AD84FEAD53C0CF1770C4FEA4C0105E6F2
:105190004FF48053EFE60123C8F804304446002260
:1051A0002FE791100120D8F8042000FA01F10A43FA
:1051B000C8F80420194674E740F254539C451BD8A4
:1051C0004FEA954C0CF17C0C4FEA4C01E6E50AF1F4
:1051D000100AA3E6542B1FD80A0B6E3250004EE77C
:1051E000CBF30B0100297FF4B1AE0AEB0901BA68D9
:1051F00041F001015160F6E6FC214FF07E0CCDE557
:1052000001224FF0000ACBE604F10801304600F01D
:10521000E3FCDAF80030E6E6B3F5AA7F03D8CA0B60
:10522000773250002BE740F25452934203D88A0C55
:105230007C32500023E7FC207E2220E77B688CE74D
:10524000548CFF1F8842F0B410D98C18A0420DD2A4
:105250008518531E42B121462A4611F8014D02F825
:10526000014D013B5C1CF8D1F0BC70470F2A3FD9BF
:1052700040EA01039B073FD1A2F110073F0900EB71
:10528000071610360C46034625681D6065685D608C
:10529000A5689D60E568DD601033B34204F1100439
:1052A000F2D17B1C02F00F0C1B01BCF1030F19445F
:1052B000034423D90E461D466446043C56F8047B3D
:1052C00045F8047B032CF8D8ACF1040424F0030463
:1052D000043402F0030223442144002AC4D01A44B7
:1052E00011F8014B03F8014B9342F9D1F0BC704720
:1052F0000346002AF3D1B7E70346F0E76246002AE7
:10530000EDD1B1E7704700BF704700BF024B0A46BE
:105310000146186800F002B8508CFF1F2DE9F04FCD
:105320000C4683B090468146002900F0E280FFF7EA
:10533000E9FF08F10B0654F8043C162E23F0030590
:10534000A4F108074BD810210E46B0454CD88D4229
:1053500078DADFF890B3DBF808E07819864500F0DA
:10536000CE80426822F0010C8444DCF804C01CF0BA
:10537000010F7AD000221046DB0700F1928054F82A
:10538000083CC3EB070ADAF8043023F003032B448C
:1053900088B3704500F0ED8002EB030E8E452ADBEA
:1053A000C36882685746D3609A6057F8081FDAF8D6
:1053B0000C30CB602A1F242A996000F22681132A20
:1053C00040F2B3802368CAF808306368CAF80C302A
:1053D0001B2A00F2308108340AF11003A6E026F0FF
:1053E0000706002E3146B0DA0C230020C9F8003041
:1053F00003B0BDE8F08F8B4253DB5746DAF80C1050
:1054000057F8080F2A1F242AC160886000F209811A
:10541000132A40F204812168CAF808106168CAF8AA
:105420000C101B2A00F21C8108340AF110022168BA
:10543000116061685160A16891601D46DAF804301E
:105440003C465746AA1B0F2A03F0010319D82B43E9
:105450003D447B606B6843F001036B604846FFF797
:1054600053FF204603B0BDE8F08F22F0030202EBA9
:10547000050C8C4580DBC26881686546CA60916016
:10548000E0E7B91942F001001E430A447E6048601B
:10549000536843F0010308315360484600F09CFB19
:1054A000DCE741464846FFF731FC8046D0B154F86E
:1054B000043C23F001023A44A0F10801914200F0BB
:1054C0009E802A1F242A50D8132A23D80346224616
:1054D000116819605168596092689A60214648467F
:1054E00000F07AFB4846FFF70FFF404603B0BDE8E7
:1054F000F08F114603B0BDE8F04FFFF707BCDEF8B0
:10550000042022F00302501906F1100C604519DA4C
:10551000704631E723680360636843601B2A63D8E1
:1055200000F1080304F10802D2E73B4622681A6042
:1055300062685A60A2689A603C467546DAF80430A0
:1055400057467FE73744831B43F00103CBF80870CD
:105550007B6054F8043C03F001031E43484644F8C2
:10556000046CFFF7D1FE20467CE72146FFF76AFE78
:10557000B4E702EB030C06F110029445FFF63BAFD3
:105580005746DAF80C3057F8081F2A1F242ACB6038
:10559000996000F28780132A78D92368CAF8083006
:1055A0006368CAF80C301B2A00F2858008340AF1BF
:1055B000100322681A6062685A60A2689A600AEB57
:1055C0000603C6EB0C0242F00102CBF808305A6029
:1055D000DAF8043003F001031E434846CAF80460B9
:1055E000FFF792FE38463DE7A3688360E368C36037
:1055F000242A2CD000F1100304F1100268E750F8BF
:10560000042C22F0030215441CE721463846754657
:105610003C46FFF717FE5746DAF8043012E73A46E1
:1056200005E7214638461D463C46FFF70BFE574628
:10563000DAF8043006E7A368CAF81030E368CAF85D
:105640001430242A18D010340AF118036EE72369A5
:1056500003616369436104F1180200F1180337E73D
:10566000A168CAF81010E168CAF81410242A0FD0F3
:1056700010340AF11802DAE62369CAF818306369AF
:10568000CAF81C3018340AF120034FE73B4690E774
:105690002269CAF818206269CAF81C2018340AF175
:1056A0002002C4E621463846CDF804C0FFF7CAFD03
:1056B000DDF804C083E7A368CAF81030E368CAF8CD
:1056C0001430242A03D010340AF1180371E7236937
:1056D000CAF818306369CAF81C3018340AF120037C
:1056E00067E700BF548CFF1F38B5074C0023054601
:1056F00008462360FBF7DCFB431C00D038BD236861
:10570000002BFBD02B6038BDB894FF1F40EA010C82
:105710001CF0070F23D1BDF1100DCDE90245CDE9F5
:1057200000676FF000064FF0000700BFF0E80223AB
:10573000F1E80245A24282FA46FCA7FA86FC08BFBD
:10574000BCF1000F40F0D780AB4283FA46FCA7FAC9
:1057500086FC08BFBCF1000F40F0CA80E6E710F0FD
:10576000030C21D020F0030050F8042B5FEACC7C1E
:1057700008D00FD211F801CB5FFA92F3B3EB0C0C07
:1057800010D17BB111F801CB5FFAA2F3B3EB0C0C93
:1057900008D13BB111F801CB5FFAB2F3B3EB0C0CBB
:1057A00000D10BB960467047BDF1100DCDE902453F
:1057B000CDE900676FF000064FF0000711F0030C11
:1057C0002DD110F0040F0DD050F8042B51F8044BDC
:1057D000A24282FA46FCA7FA86FC08BFBCF1000F81
:1057E00040F0898011F0040F9FD051F8045B00BF96
:1057F000F0E80223AA4282FA46FCA7FA86FC08BF18
:10580000BCF1000F71D1F1E80245A34283FA46FCD6
:10581000A7FA86FC08BFBCF1000F63D1E8E721F0CE
:105820000301BCF1020F1ED03BDA51F8045B00BF4C
:1058300050F8043B4FEA152583FA46FCA7FA86FC8C
:10584000B7EB0C2F03EA162208BFAA424DD151F83C
:10585000045BBCF1000F82EA03034FEA056208BF54
:1058600093423CD1E4E751F8045B00BF50F8043B9D
:105870004FEA154583FA46FCA7FA86FCB7EB0C4FB6
:1058800003EA164208BFAA422FD151F8045BBCF1CB
:10589000000F82EA03034FEA054208BF93421ED17C
:1058A000E4E751F8045B00BF50F8043B4FEA15658C
:1058B00083FA46FCA7FA86FCB7EB0C6F03EA166284
:1058C00008BFAA4211D151F8045BBCF1000F82EA73
:1058D00003034FEA052208BF934200D1E4E719BA57
:1058E00012BA0AE019BA22BA07E011BA2ABA04E0D9
:1058F00019BA2ABA01E011BA22BA9CFA8CF0DDE991
:105900000067DDE902451DF1100D38B1B0FA80F0F5
:10591000C0F1180021FA00F122FA00F201209142B0
:1059200098BF8041704700BF80EA0102844612F0B0
:10593000030F4FD111F0030F32D14DF8044D11F088
:10594000040F51F8043B0BD0A3F101329A4312F03B
:10595000803F04BF4CF8043B51F8043B16D100BF14
:1059600051F8044BA3F101329A4312F0803FA4F1A5
:1059700001320BD14CF8043BA24312F0803F04BF2C
:1059800051F8043B4CF8044BEAD023460CF8013B99
:1059900013F0FF0F4FEA3323F8D15DF8044B704743
:1059A00011F0010F06D011F8012B0CF8012B002A81
:1059B00008BF704711F0020FBFD031F8022B12F070
:1059C000FF0F16BF2CF8022B8CF8002012F47F4F2B
:1059D000B3D1704711F8012B0CF8012B002AF9D133
:1059E000704700BF20F0030110F00300C0F1000079
:1059F00051F8043B00F1040C4FEACC0C6FF00002AC
:105A00001CBF22FA0CF213434FF0010C4CEA0C2C91
:105A10004CEA0C4CA3EB0C0222EA030212EACC1271
:105A200004BF51F8043B0430F4D013F0FF0F1FBF44
:105A3000013013F47F4F013013F47F0F18BF013092
:105A4000704700BFF0B5274C2668D6F8484185B0AE
:105A50000746002C41D065681F2D1EDD224818B96D
:105A60004FF0FF3005B0F0BD4FF4C87003910292C3
:105A70000193FFF73BF90399029A019B0446002822
:105A8000EED0D6F848512560002060600546C6F883
:105A90004841C4F88801C4F88C013FB9AB1C002010
:105AA0000135656044F8231005B0F0BD04EB8500B6
:105AB0004FF0010CC0F88820D4F888610CFA05F288
:105AC0001643022FC4F88861C0F80831E6D1D4F833
:105AD0008C311A43C4F88C21E0E706F5A674C6F8A9
